:020000040002F8
:10300000D8A00020211503000F5102008F510200AB
:1030100097510200B75902000F6B02000000000038
:10302000000000000000000000000000FB83020020
:10303000A38B0200000000004BA50200DFBC0200D1
:10304000D50E0300F7BF020095F302000FC4020083
:1030500083DF02008FE50200BDE3020037EA0200D1
:1030600029140300C3140300CF140300DD1503006B
:10307000DF150300E1150300E3150300E515030068
:10308000E715030035AF0200E9150300EB15030057
:10309000A3AF0200ED15030033B30200EF150300E8
:1030A000F1150300F3150300F5150300F7150300F0
:1030B000F9150300FB1503000000000000000000EC
:1030C000FD150300FF15030001160300031603009E
:1030D000BDE0020005160300071603000000000013
:1030E00000000000000000000000000000000000E0
:1030F00000000000000000000000000000000000D0
:1031000000000000000000000000000000000000BF
:1031100000000000000000000000000000000000AF
:10312000000000000000000000000000000000009F
:10313000000000000000000000000000000000008F
:10314000000000000000000000000000000000007F
:10315000000000000000000000000000000000006F
:10316000000000000000000000000000000000005F
:10317000000000000000000000000000000000004F
:10318000000000000000000000000000000000003F
:10319000000000000000000000000000000000002F
:1031A000000000000000000000000000000000001F
:1031B000000000000000000000000000000000000F
:1031C00000000000000000000000000000000000FF
:1031D00000000000000000000000000000000000EF
:1031E00000000000000000000000000000000000DF
:1031F00000000000000000000000000000000000CF
:10320000002818BF01F068BF704710B50446206859
:10321000FFF7F6FFA168CA7C06E010B504462068F7
:10322000FFF7EEFFA1688A7C497B8018B0FBF1F2C2
:1032300001FB1200401E8041C00F10BD2DE9F0417E
:1032400082B00446884616461F46002518E060688E
:10325000D0F800C0DCF80CC06B46324608EB050124
:10326000E04700984519361A50B9A068017803293B
:1032700006D090F83C110029FBD0002180F83C11C9
:10328000002EE4D10FB100983860BDE8F3810A4602
:1032900000693CA101F047BF10B54068046824698B
:1032A000A04710BD2DE9F843064691461C46C9B912
:1032B00001F095F9C608B14528D20027DFF8F88A51
:1032C00000E07F1CB74221D2DFF8F00A00EBC7050F
:1032D0006868016858F8290001F038FF0028F0D12B
:1032E000686814E096B1307840B1089F726839463A
:1032F00048469047386850B1276009E071684FEA46
:103300000910095811B17168084400E000202060DC
:10331000BDE8F18338B58568006805F10804FFF75A
:103320006FFFA071A179E87C00F018F82070A179F6
:10333000E87C00F00DF8A070A179A87C00F008F8F6
:10334000E070A179A87C00F009F86070204632BDD9
:103350000818617990FBF1F0401C704708186179FA
:1033600090FBF1F201FB1200401C704700690FF264
:10337000040204E01B5B4A0000690FF20C02CDA1BD
:1033800001F0D1BE256300001B37000000690FF279
:103390000402F4E71B38000000690FF20402EEE7B4
:1033A0001B4500000A0004D000690FF2080101F07B
:1033B000BABE70471B5B2564440000000A0004D0BD
:1033C00000690FF2080101F0AEBE70471B5B256477
:1033D000430000000A0004D000690FF2080101F068
:1033E000A2BE70471B5B2564410000000A0004D0A8
:1033F00000690FF2080101F096BE70471B5B25645F
:103400004200000070B50446FFF784FF0546A87827
:10341000E97888420CBF0126002600F084FC18B928
:103420002046FFF7FAFE08B100F080FC56B901F023
:1034300092FB68782978884204D2091A2046BDE8B0
:103440007040D5E168782978411A2046BDE870407F
:10345000C9B2A7E738B50446FFF75CFF0546AB796C
:103460002A78A8785B1C9A4208BF012812D002284B
:1034700002D3411E01F072FBA8792978884203D259
:10348000491E01F055FD02E0401C01F0B5F9A168AC
:103490000020C87431BD38B50446FFF73BFF054630
:1034A00028786978884202BFA878E978884212D0E3
:1034B000E878A978814202D2411A00F00DF86878C4
:1034C0002978884202D201F033FD01E001F094F93D
:1034D000A068817CC17431BDC9B2204686E7000076
:1034E0002DE9F04383B0044600258DF8005080217B
:1034F000A068DFF8C09B943001F04AFE20690FF20B
:10350000681101F010FE206901F002FE002600277C
:103510004FF47A7800F0CAFE0198002842D1D9F819
:103520000010DFF8942B40F2E73000BF00BF00BF6F
:1035300000BF00BF00BF00BF00BF91422FD000BF3F
:1035400000BF00BF00BF00BF00BF00BF00BF00BF83
:1035500000BF00BF00BF00BF00BF00BF00BF00BF73
:1035600000BF00BF00BF00BF00BF00BF00BF00BF63
:1035700000BF00BF00BF00BF00BF00BF00BF00BF53
:1035800000BF00BF00BF00BF00BF00BF00BF00BF43
:1035900000BF00BF00BF00BF00BF00BF00BF401E94
:1035A000C3D15AE09DF80010A0681B2946D090F8BE
:1035B00094201B2AAED1522940D1384480F894502F
:1035C000A06800F194014A785B2A02D00D700B20AC
:1035D00047E00227C1190A2291F894107F1C3B2969
:1035E000FFB208D016FB02F25118A1F13006802F6D
:1035F000B6B2EFDB10E0802F0EDAC11991F894100B
:103600000B000BD015FB02F37F1C5918FFB2A1F180
:103610003005802FADB2F0DB0C2022E0FB2D26BF61
:10362000FA2101720572A068FB2E26BFFA21817271
:103630008672A168002081F8940012E038447F1C53
:10364000FFB20A2F80F8941004D3A16881F8945037
:10365000042006E001980028ACD1B8F10108A9D1F6
:103660000D20BDE8FE8300001B5B366E00000000ED
:103670007CB50A0083680FA113D0DB7B934217D07F
:103680000FF2340402F12F03D4E90056CDE90056BD
:103690008DF805308368DA736A46006901F043FDEE
:1036A00073BD0022DA7300690FF2140201F03BFDD2
:1036B00073BD0000257300001B5B313B33006D00C0
:1036C0001B5B6D000A0000D1704730B583B0826883
:1036D000127C8A4210D00FF2240301F12F02D3E9A9
:1036E0000045CDE900458DF80320826811746A46D3
:1036F0000069D0A101F017FD37BD00001B5B34004D
:103700006D000000806810F80F2F0A7042784A7030
:103710007047F8B504460E4600F0FDFF01F00105C4
:1037200000F112014A7809788F1AFFB2EDB97F29AA
:1037300053DA37B1104400F114013A46153001F064
:103740002BFD00F0F6FA06750DB900F047F8EFB161
:1037500000F097FCB7A68178C07881420AD100F0CA
:10376000B1F8791B01F0E5FB17E07F29E9DB002FB9
:10377000E7D1F1BD2046FFF7FFFD00F0A3F820469A
:10378000FFF704FE012101F039F806E00DB100F069
:1037900025F831462046FFF77AFD00F07BFCFFF765
:1037A00034FD0028204602D0BDE8F240F4E5FFF7E2
:1037B00034FD90B100F065FC0546E878A978401A20
:1037C000411EFFF789FE00F0B1FA01F0C4F9287834
:1037D000411E2046BDE8F4400AE0F1BDA068817CAE
:1037E000491C81740021A068827C104401757047D7
:1037F000C9B2E3E570B50446A068817C0A0033D005
:10380000C27C130030D08D1A1044EDB200F11401C7
:103810006A1C133001F0C0FCA068C17C491EC17451
:1038200084A6A068817C491E8174280014D00821D8
:103830002046FFF72CFD00F024FC8178C0788142FF
:1038400009D100F03FF82046FFF790FD29462046B9
:10385000BDE87040A6E53FE020690FF21002314656
:10386000BDE8704001F05FBC70BD0000082008009A
:1038700070B50446A068C17C827C551AEAB2002A61
:103880001CD0084400F1150100F04AFAA068817CC0
:10389000491E817400F0F5FBEDB28178C078814259
:1038A00064A60AD100F00EF820690FF21402314626
:1038B00001F039FC2046691EC8E50DE070BD00002E
:1038C0001B5B4B00A068C17C084400F11403324626
:1038D0000821204600F0EBBE2046FFF74DFD2046B4
:1038E000FFF744FDFFF7EEFF2046BDE870404DE5D1
:1038F0002DE9F04780460024894616469A46C8F8C6
:103900000040357855B1284601F096FC70B1002092
:1039100006F8010BD8F800005045F2D30020D8F883
:10392000001049F821002046BDE8F087D8F80000D3
:10393000411CC8F8001049F82060002404E000F0A1
:1039400043FA00F061F8761C3578002DE2D064B9B6
:10395000222D18BF272D02D05C2DF0D005E000F0FD
:1039600033FA00F051F82C46EEE7AC4204D100F0F7
:103970002BFA00F049F8E0E7002C3FD05C2DE2D1B3
:103980007078A042DBD0302819D100250227F05DE5
:10399000A0F13001082905D27F1C41EAC505052F99
:1039A000EDB2F4DB032F0ADB00F00EFAC01B821C21
:1039B000F019411E00F02AF806F8015BC4E77828E8
:1039C000C1D100250227F05DA0F130020A2A38BFDC
:1039D00030380AD3A0F16102062A38BF573804D321
:1039E000A0F14102062A06D237387F1C40EA0515AD
:1039F000042FEDB2E7DB032FA5DBD5E7284601F066
:103A00001BFC002886D19EE70246711C304601F05F
:103A1000C3BB8268022911700AD100211175826826
:103A2000D1748268917403A20368032100F03FBE41
:103A300070470000257300003EB50446684600222A
:103A4000002300252CC0A0684FF4987210448268AF
:103A500019BB002A76D02046FFF7FCFCA068D0F8FE
:103A6000380100F0D6F8A16801988D7CC1F83801C2
:103A700000283BD101F19400FFF7C2FB30B1A068F0
:103A800000F19401143001F0E1FB01E0A168087538
:103A900000F007F98DF8080039E041688A421CBF40
:103AA000006800284ED02046FFF7D4FCA168D1F86A
:103AB000380198B901F11400FFF7A2FB054600F0A8
:103AC000ADF80A688A60E9B229B100F114019430B6
:103AD00001F0BCFB0AE080F8941007E000F099F8D0
:103AE000A1689DF808500098C1F838010023A0682B
:103AF000D0F8380100F08EF89DF80810A0684A1C34
:103B000000F11401D0F83801092301F062FCA1682A
:103B10009DF80800C874EDB2A1689DF8080088748B
:103B20009DF80800A8423CBF2046FFF71FFC00F0AC
:103B3000B7FA00F0F8F818B92046FFF76EFB08B1A5
:103B400000F0F4F837BD3EB504460D46A1684FF4C9
:103B500098700A18106838B9156055600090019087
:103B6000887C8DF8080016E000F053F801950023DA
:103B7000A068D0F830010922694601F026FC002037
:103B80000190A068D0F830110091807C8DF8080079
:103B9000A068C0F8305100F036F8A068817C4A1C5B
:103BA00000F114010923284601F00FFC37BD3EB592
:103BB0000446A068D0F8345125B300230922694691
:103BC000284601F006FCA1680198C1F834010921DA
:103BD000684601F0DDFA00F016F8284601F08CFB8B
:103BE00000F01CF8486808B9086037BD00F011F80B
:103BF000002000900023A068D0F834010922694613
:103C000001F0E3FB37BD002309226946284601F095
:103C1000DCBB00230922694601F0DBBBA0684FF43E
:103C200098710144704770B5044684B000F039F8CB
:103C3000C5B2A0684FF498710844002181607DB33B
:103C40000068E0B1FFF7E5FF9DF80800854216D156
:103C5000A668421CD6F83001092306F1940101F050
:103C6000B8FBA66806F1940106F1140001F06EFAA3
:103C700010B986F894007FBD002086F894000826CD
:103C8000606905F10A0101F005FB20B101462046FB
:103C9000FFF759FF7FBD2046FFF789FF761EEFD162
:103CA0007FBDA0681430FFF7ABBAF8B504460D46E7
:103CB000A068C37C817C1646CF1A71188029FFB298
:103CC0002CDA31002AD0C118F31818447A1C00F0FD
:103CD00026F8A068C37C18443246294600F020F834
:103CE000FFF7DFFFA168887432A200F022F800F12C
:103CF000140300F01BFCA068C17C7118C17400F0B3
:103D000012F818B92046FFF788FA08B100F00EF84B
:103D100027B12046BDE8F240FFF774BBF1BD143176
:103D2000143001F039BA2046FFF76FBA2046FFF78A
:103D300033BBA068C17C084470472DE9F0410D00F9
:103D400082B00446174603D1A168002048742EE0D3
:103D5000D7A600F039F8C71900F036F8A168497BFA
:103D6000081AFFB2B0FBF7F82846FFF749FA3F1AE6
:103D7000A068417C4A1C42745FFA88F291FBF2F021
:103D800002FB101040B9009533460FF234020721B0
:103D9000204600F08CFC04E02B4606A2072100F030
:103DA000C6FBF9B22046BDE8FC41FFF707BBBDE802
:103DB000F381000025730000B09800206C1203000E
:103DC0000D0A2573257300003046FFF719BA2DE957
:103DD000F04F9DB0044600250695A946A068817C59
:103DE000C1F17F085FFA88F8B8F1000FAA4600F029
:103DF0001981C27C00F11401943001F001FBA0682C
:103E0000C27C104480F89450FFF793FFC07C01F00F
:103E100013FA00B1012005900C23A068C0F83851B6
:103E200000F194020FA904A8FFF762FD0F98FFF7B5
:103E3000E7F9C6B2039501950295049828B1059853
:103E400004990818401E81455CD3059808B10026E6
:103E500005E00FA850F82900FFF7D2F9C6B20027F5
:103E600000F007F901987F1C002873D0D0F800B04B
:103E70000FA8324650F82900594601F0ECFA002804
:103E8000029802D00028EBD056E068B9781E069060
:103E90005846FFF7B5F95FFA80FAAAEB06004045ED
:103EA00024DA5FFA80F821E05846FFF7A9F9C0B29A
:103EB0008245B8BF8246B8F1000F17D00BA800F0BA
:103EC000D1F80298006881190198006882190020D1
:103ED000135C1D0007D00D5CAB4204D1401CC0B286
:103EE0000028F5D1FF204045B8BF80467D1E0198CF
:103EF0000290002FB4D10FF234120421204600F0BA
:103F0000D6FB19E0002700F0B4F87F1C06D104218D
:103F10000FF21812204600F0CAFB83E00198002837
:103F2000FBD001680FA850F8290001F00FF9002814
:103F3000E9D1019880680390039858B1019848B17D
:103F400009F101005FFA80F9049805990818814584
:103F5000FFF473AF0298002864D00698A84242D1BB
:103F60000398007810B107A800F07CF8029800F0E0
:103F700051FDB04201D000F087F8FFF7DAFE007D76
:103F800001F05AF90028A06817D190F83D11CA072E
:103F90000ED501F0FE0180F83D1120462021FFF7EB
:103FA000B8FB00F0B8FB41F0010180F83D1139E0A9
:103FB00020212046FFF7ADFB34E012304178007835
:103FC00081422FD200F05DF8857800F063F8FFF7AA
:103FD000A1F98078854203D1012100F00FFC21E096
:103FE000FFF7A4FE1EE0524600212046FFF7A5FE83
:103FF000069F08E000F03DF801980168524620460F
:10400000FFF79BFE7F1CBD42F4D223680FF24C02E7
:10401000032100F08CFA00F043F82046FFF7F2F994
:1040200000F032F81DB0BDE8F08F0000546162204E
:1040300066756E6374696F6E3A20636F6D6D616E45
:10404000647320636F756E746572206F7665726637
:104050006C6F7765642E0D0A000000000D0A257351
:1040600000000000009002AB03982A464946FFF783
:1040700019B907A8009001AB03983A464946FFF7E3
:1040800011B92046FFF746B90298006881194246E7
:1040900020460AE6A068C17C491CC17420467047CE
:1040A000A06800F1140305A208212046FFE20000E9
:1040B00020200000709700200024F40025730000E9
:1040C00030B583B004460020019001E00020087064
:1040D00000F0ECF8019800B937BD9DF80000802889
:1040E000F6D2C046C046A068411C0A781AB1022A1E
:1040F0006AD063D3EAE79DF80020237E9A420DD16F
:10410000487C0028204602D1FFF746F901E000F084
:1041100017F902212046FFF77CFC37BD002AD7D0D3
:10412000082A0FD0092A06D01B2A02D07F2A10D0D5
:1041300016E00120CBE700F0B3F8C9D02046FFF726
:1041400046FEC5E700F0ACF8C2D02046FFF752FBB0
:10415000BEE700F0A5F8BBD02046FFF789FBB7E724
:104160001546A5F120005F2808D3284601F050F835
:1041700020B9284601F056F80028A9D000F0CBFA63
:10418000C1F3C00100299DF8001003D02046FFF7BD
:10419000C0FA9DE710F8122F7F2A99DA4278531C53
:1041A0004370A068104401750021A068C27C1044CF
:1041B0000175A068817C491C817489E79DF8000025
:1041C0005B2883D1022082E700220A7090F83D111B
:1041D000C1F3C0010029A0D09DF8001041290CD0E6
:1041E00042290FD043290FD044292AD0462943D051
:1041F000482945D04C2947D06AE701212046FFF7DE
:104200001BFC65E70021F9E7FFF73BFF054628782F
:104210006A78904202BFA978EA789142F1D0697930
:1042200088420AD10121FFF758F9697900F082FE2E
:10423000A068C17C491CC1744AE7012100F0DEFA84
:10424000F6E7FFF71EFF0546A9792878491C884242
:1042500004BFA9780129EFD0012809D1012100F07C
:104260007EFC697900F0CAFAA068C17C491EE2E7C9
:10427000012100F05FFEF7E72046FFF70CF927E782
:104280002046FFF7E7F823E790F83D1181F001029F
:1042900002F0010201F0FE01114380F83D1117E721
:1042A00090F83D01C0F3C0000028704701AB012227
:1042B00069462046FEF7F0BF70B504460025A068A9
:1042C000007D002833D0A068EDB228446D1C007D2D
:1042D00000F0B2FF28B1E8B20028F4D1A168087557
:1042E00070BD6D1E08D0A068817C491C4A1B411915
:1042F000FFF715FD00F01CF80025A068817C08443C
:1043000000F1130601E06D1C761E307800F094FF7A
:104310000028F8D1A068817C42181332964206D05A
:10432000EDB2491B08440021017500F001F870BD91
:10433000A068817C491B8174A068817CC17470472E
:104340002DE9F04F95B00446FFF7B6FF2046FFF782
:104350006AFCA06800F114020C2308A902A8FFF768
:10436000C7FA00250299A84611B9FFF7DFFCA6E0BD
:1043700030B103460FF24C12022100F0D8F89EE053
:10438000DFF8FC0ADFF8FC1ADFF8FCAA401A002765
:104390004FEAD0094F4510D3FFF7C5FC00280FF2B4
:1043A0003C15089B009514BF0FF244120FF24812FF
:1043B0000221204600F07BF981E00AEBC706706815
:1043C0000168089800F0C2FE10B17F1CB945E1D227
:1043D0000195A9467068C168039109B1A168486058
:1043E0004FF0010A7068866811E0016808A850F86B
:1043F0002A0000F0ABFE58B90198C06818B15546C4
:10440000A7F10108B146019886680AF1010A002760
:104410000298824521D208A8A0A150F82AB0584697
:1044200000F094FE28B10FF2DC01584600F08EFE39
:1044300030B900F070F941F0020180F83D110CE054
:1044400004A8009001AB3A4651463046FEF72AFFD9
:104450007F1C1CBF01980028C7D12046FFF71BF81E
:10446000FFF761FC08B9FFF761FCB9F1000F12D04A
:1044700004A8009001AB424629464846FEF712FFC9
:10448000A3680198586008A800EB85025B68029851
:10449000DB68411B04E0039828B10299039B08AA3A
:1044A0002046984705E00FF264020221204600F002
:1044B000FEF800F030F901F0FD0180F83D1115B073
:1044C000BDE8F08F0D0A6E6F74207465726D696EB1
:1044D000617465643A2025630D0A00003A20636F19
:1044E0006D6D616E64206E6F7420666F756E640012
:1044F000257325730D0A00000D0A257325730D0A17
:10450000000000002D2D68656C700000506C656126
:104510007365207370656369667920737562636F74
:104520006D6D616E642E0D0A0000000008212046AA
:10453000BDE00968006800F009BE18B18968012073
:1045400081F83C01704770B504461546E068DFF815
:104550003C2944612346606806683668B0470028F5
:104560003CD1606900F094FE002837D1FFF756FB7C
:1045700000220A604A604FF4A07100F009FEA068B2
:10458000DFF804394FF49E710844012101700022C4
:10459000417801F0FB0141EA8501417000F0C3FB65
:1045A0000121A0680170502141731820A16808738F
:1045B00000F015F8C108DFF8D80806E003EBC204E4
:1045C0006468246840F82240521C8A42F6D321B124
:1045D000DFF8C038042201F0E7F9002070BDDFF8F1
:1045E000A008DFF8A018401A704770B504461D46B1
:1045F000FFF7A9FF06000BD155B10499E06801F05F
:10460000B3FC002801D5042070BDE1680120487288
:10461000304670BD38B50446A0680078012801D046
:10462000082032BD6068026892680021904705004A
:104630000FD108212046FFF71BF801212046FFF784
:1046400041F8206916A100F06EFD02212046FFF717
:10465000E0F9284632BD38B50446A0680078022843
:1046600016D12046FFF72CFD0021204600F0D9F995
:1046700070B10CA523682A460321FFF758FFA068F4
:1046800000F114032A46FFF751FF2046FEF7BAFE59
:104690002069BDE8324000F03BBD00002D680000FD
:1046A0000D0A0A00257300000023FEF7C7BD08B4F9
:1046B00070B504460FF6F410006883B00D46019003
:1046C000164607A8019000F026F8C1F380010029E2
:1046D0001CBFC07B854214D069462046FFF712F804
:1046E00029462046FEF7C4FF00F010F89DF80010A0
:1046F0002046FEF7BDFF9DF801102046FEF7E2FFC1
:1047000001E000F003F877BC5DF808FB206901AA1E
:10471000314601F02EBFA06890F83D1170472DE999
:10472000F0470D000446904601D1BDE8F0871BB16B
:104730005FFA88F1FEF742FE002700E07F1CE85D8B
:1047400000F07AFD0028F9D12846FEF759FDA1684E
:10475000497B0026C01BA1EB080A824505EB07092F
:1047600022D3864214D219F806100A2919D12069D9
:1047700000F0CEFC0023324649462046FEF75EFD9F
:10478000701CC719FFF7D2FA5FFA88F100F036F80B
:104790002069E91900F0C7FC2046BDE8F047FEF7A4
:1047A000FBBD761CDDE7761C19F8060000F044FD21
:1047B00020B119F806000A28B24605D0A168497B45
:1047C00008EB06008842EED3206900F0A1FC00232C
:1047D000524649462046FEF731FD574400E07F1C13
:1047E000E85D00F029FD0028F9D1FFF79FFA5FFA94
:1047F00088F100F003F8A7E7411AC9B22046FEF796
:10480000DDBD2DE9F44F0FF6B8040FF6A80780467A
:1048100086B089463846FEF7F3FC064600F0FDF800
:10482000009408210FF22C72361A00F0DDF80368AC
:104830004046FFF73CFF00F0D7F800F0EBF80546E4
:104840002046FEF7DDFC421900F0CEF8416800F08A
:10485000CFF80FF2087208214046FFF728FF0698AC
:10486000002818BFB9F1000FB6B221D000241CE017
:104870000C2000FB04F509EB050ADAF80400FEF74A
:10488000BFFC834659F80500FEF7BAFC5844B1B2A4
:10489000814209D2DAF80400FEF7B2FC064659F864
:1048A0000500FEF7ADFC8619641C06988442DFD330
:1048B00000F0B3F88019861CB6B2009700F09CF89F
:1048C000F01CADF808000023BDF808400FF2A0610D
:1048D00022464046FFF723FFB9F1000F47D00027DB
:1048E00003E04046FEF758FD7F1C069887423ED203
:1048F0000C20784309EB00056B6828683BB320B3B4
:10490000019008210FF2A8700FF278620090B41C99
:104910004046FFF7CCFE6868FEF772FC83462868C5
:10492000FEF76EFC824600F078F8A4EB0B01A1EBD9
:104930000A01891E091AC9B24046FEF73FFD3A2115
:104940004046FEF7A4FC641C07E0009301E020B1A0
:10495000009000F051F8BDF80840A9680029C0D0C7
:10496000A4B2002322464046FFF7D9FEBCE700F080
:104970003BF8856815B907B0BDE8F08F00200190BD
:104980000026002708E000F045F8B1B2814203D2CA
:10499000019800F03FF8064600F034F801987F1CBB
:1049A0000028F0D1012FE6D00FF2E4520821404652
:1049B000FFF77DFE002702E0E21C00F019F800F08E
:1049C00021F801987F1C0028D5D000680090B41C05
:1049D000A4B2234600F011F8019841680029EBD1F8
:1049E0004046FEF7D9FCEAE7D8F80800406870476F
:1049F000002392B2404692E633460FF26C520821F1
:104A0000404654E602A8009001AB3A4601212846F0
:104A1000FEF748BC0068FEF7F3BB0FF29460FEF7A8
:104A2000EFBBF0B504468FB0E068C0680D460022C9
:104A300001A901F0FAFE002608B1002082E06DB164
:104A4000019800F07DFCA068D0F82C11491CC0F83A
:104A50002C1101F00700012873D10126FFF711FB8B
:104A60000546A878022802D3411E00F077F828787E
:104A7000022802D3411E00F05CFA2046FEF776FCC5
:104A800036B10FF21C5202212046FFF710FE58E00B
:104A9000019800230C2202A900F09BFC04980590C9
:104AA0000C250398ADF8180000208DF81C00029822
:104AB00000F003000128029818D1850AC0F3C20053
:104AC0008DF81A000C2300F03FF808A90298C0F3F3
:104AD00083160198B20000F07CFC2069009005ABC1
:104AE000324608A9284601F043FF1FE000F003000A
:104AF00002281BD10298860DC0F3C2008DF81A005F
:104B000000F022F80827082E98BF374601982B4658
:104B10003A4608A900F05DFC236905AA394608A8B1
:104B200001F066FF7D19F61B002EEBD1019800F015
:104B300007FCE068C068002201A901F076FE0028A9
:104B4000A6D001200FB0F0BD0298800800F001004F
:104B50008DF81B007047E878A978411AC9B2204641
:104B6000FEF738BC73B504466569A8680078042868
:104B700017D0032814BF0026012604E086F00101A7
:104B80002846FFF74EFFE06801A901F0F8FD002874
:104B9000F4D1019800F0C6FB1EB100212846FFF7B2
:104BA00040FF73BD704710B5446960680268926841
:104BB00001219047A16800280CBF03200420087041
:104BC00010BD38B514461A46836893F83D51AD07B9
:104BD00003D52146FFF715FE07E041B159680FF2F2
:104BE000F0320B680221FFF762FD012032BD002088
:104BF00032BD38B50229044608D1A06890F83D01BD
:104C0000800703D52046BDE8384040E099A52069DB
:104C10000FF2B042294600F086FA20690FF2A8424E
:104C20002946BDE8384000F07EBA10B5012914BF0E
:104C30000121002100F0B3F828B9FFF76CFD01F065
:104C4000FB0180F83D1110BD10B5012914BF0121F1
:104C5000002100F0A4F828B9FFF75DFD41F0040140
:104C600080F83D1110BD30B5012983B004461546CA
:104C700003D103B0BDE8304009E0022914BF01218F
:104C8000002100F033F808B900F057F937BD0022D1
:104C90000021B6E57CB50D46032D89411646C94372
:104CA000044600F022F8F8B9022D0CD170680FF21A
:104CB0003C32019002210FF2DC3000902046336834
:104CC000FFF7F5FC73BDA0680FF22C3290F83D01A0
:104CD00002B0C0F3C00000282046BDE8704014BFF9
:104CE00065A366A30821E2E473BDC90F0023002277
:104CF00067E710B5012914BF0121002100F04FF82A
:104D000028B9FFF708FD01F0F70180F83D1110BD4B
:104D100010B5012914BF0121002100F040F808B9A5
:104D200000F001F810BDA06890F83D1141F00801B5
:104D300080F83D117047F0B5012914BF0121002111
:104D400085B000F02CF840BBA0680FF2C027D0F867
:104D5000346100251AE00023092201A9304600F041
:104D600038FB9DF80C00421CA06800F19401092357
:104D7000304600F02EFBA068029E943000902B4637
:104D80003A4608212046FFF792FC6D1C0EB1082D13
:104D9000E1D3A168002081F8940005B0F0BD04467D
:104DA000002300220DE700B5012983B003D103B031
:104DB0005DF804EB6BE702290BD1516801910FF20A
:104DC000D4210091022113680FF22022FFF76FFC1B
:104DD00007BD0329894103B0C9435DF804EBC90F3E
:104DE00000230022EDE610B5012914BF01210021A6
:104DF00084B0FFF7D4FFC0B9E068C068006880687D
:104E0000E168C96889680291C0B201906422504388
:104E1000B0FBF1F0C0B200900821A0680FF2F812C8
:104E2000D0F82C312046FFF742FC1FBD10B50129F8
:104E300014BF01210021FFF7B2FF40B9A168C1F8FA
:104E40002C01E068C068BDE8104001F04BBD10BD0A
:104E500010B5012914BF01210021FFF7A0FF40B9BF
:104E600020690FF26C2203A100F05DF9A16800F047
:104E700059F810BD257300006F6E00006F66660064
:104E8000B41203006C1203006C1203003B450200D5
:104E9000B0980020334502002DE9FC410129044669
:104EA000154635D1A06800F10C0500F10D0620462D
:104EB000FEF716FB00BBA068077A90F80A80FA217B
:104EC000FFF79CFCFA21FEF708FB2046FEF708FBE3
:104ED00090B9A068007A3070A068807A2870307825
:104EE000C11B00F026F82878A0EB08012046BDE899
:104EF000FC41C9B2FEF76EBAA1680FF2581200F079
:104F000011F8204602B0BDE8F0410421FFF7CFBB05
:104F100003298941C943FFF7E8FE08B900F00DF8FD
:104F2000BDE8F381502048731820A16808737047CA
:104F3000091AC9B22046FEF735BA68680FF2AC020A
:104F4000019002210FF24C10009020462B68FFF7D1
:104F5000AEBB000025732573000000004F7074691C
:104F60006F6E733A0D0A00002020252D2A733A0037
:104F700053686F7720636F6D6D616E642068656C38
:104F8000702E00002020257325732573000000007B
:104F9000537562636F6D6D616E64733A0D0A000044
:104FA0004C6F7374204C4F4773202D20696E6372D1
:104FB00065617365204C4F47206261636B656E6469
:104FC0002071756575652073697A652E0D0A00007C
:104FD00025733A2062616420706172616D65746549
:104FE0007220636F756E740D0A00000025733A25F8
:104FF0007325730D0A0000004563686F20737461A8
:105000007475733A2025730D0A0000005B25336424
:105010005D2025730D0A00004C6F7374204C4F47C0
:10502000733A2025750D0A4D6178204C4F47207149
:1050300075657565207574696C697A6174696F6EE0
:105040003A2025752525205B25752F25755D0D0AD0
:10505000000000006E6F20726573706F6E736520C4
:1050600066726F6D207465726D696E616C2C206163
:105070007373756D656420383078323420636861ED
:1050800072732073637265656E2073697A650D0AA9
:105090000000000020756E6B6E6F776E207061727D
:1050A000616D657465723A20000000000000000028
:1050B0002C2000002D682C202D2D68656C700000C0
:1050C000202D20001B5B48001B5B324A00000000C3
:1050D0001B5B3F336C00000000F10103810704D02B
:1050E00010F8011B89B18107FAD10268B2F10131D0
:1050F000914311F0803F04BF50F8042FF6E710F8F9
:10510000011B11B110F8011BFBE7C01A7047FEE745
:1051100010B50446A2682AB12168206963699847DE
:105120000020A06010BD01B970470CB480B50FF22B
:1051300018021268009202AA00926A4601F019FA57
:1051400001BC5DF80CFB000000000000820707D0E6
:1051500010F8012B11F8013BBAB19A42F6D014E0D5
:1051600002680B689A42A2F1013301BF934313F026
:10517000803F50F8042F51F8043FF3D010F8012B72
:1051800011F8013B0AB19A42F8D0D01A7047FEE7F5
:10519000002201F0A3BCFEE781423ABF53189842B7
:1051A00000F01EB98018990707D0521E24BF13F8CB
:1051B000011D00F8011DF6D8704781071CD1103A77
:1051C00007D330B433E93210103A20E93210F9D263
:1051D00030BC1032121F24BF53F8041D40F8041DC8
:1051E000F8D838BF121D521E24BF13F8011D00F855
:1051F000011DF8D8704700BF083A07D333E9021001
:10520000083A40F804CD40F8041DF7D20832EAE726
:1052100010B50446012001F07BFC2046BDE810409B
:1052200001F082BC10B50446012001F071FC20465B
:10523000BDE8104001F083BC10B50446012001F028
:1052400067FC2046BDE8104001F08BBC5FEA000C13
:10525000830706D011F8013B00F8013BB3B1830787
:10526000F8D10A68B2F1013323EA020313F0803F58
:1052700002BF40F8042B51F8042FF3E711F8013B6B
:1052800000F8013B13B111F8013BF9E760467047A4
:1052900001F071BC2DE9F04104460F46208A061F3B
:1052A000204601F07FFC050021D000202871EE800F
:1052B00001206871A846F019C01CB0FBF6F0C0B21E
:1052C000461EC8F80040002707E06979491C69714B
:1052D000C8F80000046080467F1CB74209D220460F
:1052E00001F060FC0028F0D1284600F005F800200D
:1052F00000E02846BDE8F081F8B544790546611E16
:10530000002200E0521C2D688A42FBD3002606E0F2
:1053100007680146284601F067FC3846761CA6421D
:10532000F6D3F1BD10B5031D012453E8002F02EBA5
:10533000040143E8001090F0000FF6D110BD00000A
:1053400038B5041D012554E8002FA2EB050344E8FD
:10535000003191F0000FF6D100939DF8001011B9C3
:10536000BDE83240C8E731BD2DE9F047C6880446A4
:105370008846181D1746B0FBF6F106FB11020029FE
:1053800001E02468491EFCD1B01ABA468742089D44
:105390004FF0000988BF82460AE000F021F80022A1
:1053A000A7EB0A07D1442468BA46B74288BFB24681
:1053B0004FB1A31808EB09002900524612BF191D6E
:1053C0000146181DE9E7BDE8F08710B582B000245A
:1053D00002E010B582B001240094FFF7C5FF13BDB1
:1053E00062B38B0708D0521E11F8013B00F8013B55
:1053F00000F024808B07F6D1830740F0208000BFA7
:10540000103A07D330B4B1E83810103AA0E8381099
:10541000F9D230BC530724BFB1E80810A0E8081047
:1054200044BF51F8043B40F8043BD20724BF31F895
:10543000022B20F8022B44BF0B7803707047083A08
:1054400007D3B1E80810083A40F8043B40F804CB11
:10545000F7D25307E4E710B401E0491C521E6AB1C9
:105460000B7804789C4205D010BC2CBF01204FF073
:10547000FF30704710F8013B002BEED110BC00202C
:105480007047F0B51646402EA1B004460D460AD22C
:1054900006B32078297804F8011B761E05F8010B65
:1054A000F7D121B0F0BD8027802E98BF37463A460D
:1054B00021466846FFF794FF3A4629462046FFF703
:1054C0008FFF3A4669462846FFF78AFFF61B3C44A1
:1054D0003D44E8D121B0F0BD2DE9F0411F46402FF9
:1054E000A0B004460D4690460DD24FB3207898F8F0
:1054F000001004F8011B7F1E297808F8011B05F82D
:10550000010BF3D11CE08026802F98BF3E46324627
:1055100021466846FFF764FF324641462046FFF7C2
:105520005FFF324629464046FFF75AFF324669463A
:105530002846FFF755FFBF1B34443544B044E2D141
:1055400020B0BDE8F0812DE9F04304460D469046B9
:10555000281BA1B008EB00095FEA080616E08027C7
:10556000802E98BF3746A8EB070029183A466846B0
:10557000FFF736FFA9EB07022146E019FFF70CFE03
:105580003A4669462046FFF72BFFF61BE7D121B0CC
:10559000BDE8F0832DE9F04104460D46069F16460E
:1055A000984621462846B847002804D54246294651
:1055B0002046FFF766FF29463046B847002804D545
:1055C000424631462846FFF75CFF21462846B84749
:1055D000002805D5424629462046BDE8F04150E75F
:1055E000BDE8F0812DE9F84F054648009946861C34
:1055F00009FB01F005EB000A09FB06F0DDF8288045
:10560000009114462F1818E0C9F10000A64207EBDC
:10561000000B04D059463846C047002801D5761EF5
:105620005F464A4639465046FFF72BFF3146700029
:10563000861CBA4609FB06F02F18B442E4D2009843
:10564000884211D2481E440809FB04F02E18314646
:105650005046C047012807DB4A4651463046FFF70F
:1056600010FF2146B246EAE7BDE8F18F2DE9F54F7C
:10567000A3B01D4668420E460190C0E0C008401C21
:1056800005FB00F92E9800902B46239800EB490269
:1056900000EB0901FFF77EFF2E980090C9F1000A88
:1056A0002B4608EB0902414608EB0A00FFF772FFA0
:1056B0002E980090BA444FEA490040422B463A46A1
:1056C00051463818FFF766FF2E9800902B46239816
:1056D000524641464844FFF75DFF00E03E462398AE
:1056E000B04207D201982E9A371831463846904773
:1056F0000028F3D00298844207D22E9A31462046E1
:105700009047002808BF6419F4D0A046374608E047
:105710002B46224631464046FFF7DEFEA8442E4483
:105720002C44029880452BD22E9A41463046904711
:10573000002807D4012823DA2A4641462046FFF7ED
:10574000A0FE2C44A844ECE7AA464FF0800BBAF127
:10575000800F98BFD3465A46394603A8FFF740FE4C
:105760005A4649463846FFF73BFE5A4603A9484683
:10577000FFF736FEBAEB0B0A5F44D944E5D1009F30
:105780002398B8421DD201982E9A381800903146BD
:1057900090470028F3D4012813DA0198DDF800902F
:1057A0000644402D3746CFD2002DE8D02846397820
:1057B00099F8002007F8012B401E09F8011BF6D1CB
:1057C000DDE7239887423BD1029880454AD124984F
:1057D000400800EB500024902B462398249A301A5E
:1057E000B0FBF5F80298001BB0FBF5F62E98009080
:1057F00046454DD323984146FFF738FF239424981C
:1058000000284BD0212E49D323987108694300EB1F
:10581000010805FB06F108440199029047182398F6
:10582000381AB0FBF5F02928464608EB0504BFF40A
:1058300025AF2E9800902B4623983A4641464AE7DA
:105840000198381800900298009F80451AD101985D
:105850000644B74204440ED12A4621463046FFF79B
:1058600010FE5EE744457FF453AF2A46314640467A
:10587000FFF707FE52E72B46324621463846FFF730
:105880002BFE4EE72A4639464046FFF7FAFD59E718
:1058900031462046FFF7EAFE4646B0E7212E5DD3AB
:1058A00074080AD02E980090641E23982B46324626
:1058B0002146FFF797FE002CF4D1239805FB06F153
:1058C000471800EB45086842019001983F1823985B
:1058D0002A463946FFF7D5FDDDF88C90761E002468
:1058E0004FF0020AC3461DE00198B2450BEB0004DD
:1058F00005D02E9A214658469047002802D5AAF195
:10590000010AA3462A4659464846FFF7BAFD5446BF
:105910004FEA4A0000F1020A2398D94605FB0AF132
:1059200000EB010B5645DFD264B1601E440823989A
:105930002E9A05FB04F100EB010A514648469047B8
:10594000012804DA022EC0D225B0BDE8F08F2A4625
:1059500049465046FFF795FDD146E5E7022EF3D3C1
:10596000239C6842019004E023982A462146FFF7D1
:10597000EAFD761EE8D02C4423992E9A20469047C3
:105980000028F1D4A046274600E0B84601982E9A98
:105990003F183946204690470028F6D4A045E8D065
:1059A0002A4621464046E2E780B5009313460A4660
:1059B000FFF75CFE01BDFEE710B5012450E8003F93
:1059C00043EA040140E8001292F0000FF6D10846C5
:1059D00010BD2DE9F041010008BF07203AD0DFF8E3
:1059E0008818FF228A6000220A604A6001F20C4196
:1059F000CA608A6008600A740FF22C50FFF748FCF6
:105A000040BBDFF86808DFF86818DFF86888401ADC
:105A1000C408002518E0B54209D058F8361058F8E7
:105A200035001422FFF717FD0128A8BF7F1C761C44
:105A3000A642F0D30C21DFF8400869430844002156
:105A40000580416047806D1CA54202D200270026D8
:105A5000EEE70020BDE8F08130B5B9B1DFF80C18F1
:105A6000DFF80C280568DFF81038891A002200E0FA
:105A7000521CB2EBD10F07D20C2454431C4464884F
:105A8000AC42F5D1026001E0052030BD002030BD00
:105A900001B56846FFF7E0FF28B9DFF8D80700999D
:105AA00050F8310002BD002002BD0000491EDFF8A1
:105AB000C427032902EBC0000BD8DFE801F0020481
:105AC000060802207047042070470079704740792B
:105AD00070470020704730B50C24DFF89C376143D5
:105AE000194400EB400007238C6803FA00F502F02C
:105AF0000702AC4302FA00F0204388600022002431
:105B000003FA04F50540E540AA4238BF2A46E41CE2
:105B10000A2CF5D34A6030BD32B500250446002B6F
:105B2000114668460CD0FFF797FF90B9009900F036
:105B300016FA04EB44018068C84000F0070508E04D
:105B4000FFF78AFF28B90099DFF8280700EBC100AA
:105B50008579284632BD000070B5DFF80C474FF458
:105B6000836084B02044FFF727FF04F214452846E1
:105B7000FFF722FF6068A16805E0C2F3891303EB19
:105B80009252521C101801EA000204EB82020C32FD
:105B9000126812F0030FF0D0002201EA000304EBB8
:105BA0008303401CDB684DF82230521C032AF4D3D7
:105BB000009901F00301012907D0022909D10099B8
:105BC000890DC91C00EB910003E00099C1F383111A
:105BD0000818002655E8003F03EA060245E80021C0
:105BE00091F0000FF6D103B160607FBD2DE9F04761
:105BF00004461F46089DDFF87086781C28408946B9
:105C000008EB8000210CC160B81C284008EB80061E
:105C1000D8F80C04924680472109E20001F0010106
:105C200002F03802F06042EA810141EA8A1105EA95
:105C30000700C1F3090108EB800041EA892141F026
:105C40000101C160BDE8F08770B582B0C41C0020BE
:105C50008DF800000E46684600F0DEFFDFF80856BB
:105C600028683060E61C01E0FFF776FFA868296825
:105C7000401C401A69680818B042F5D32868A96822
:105C8000084005EB800050F80C1F41F00301016053
:105C90002868201828609DF8000000F0D8FF012037
:105CA00076BD2DE9F043DFF8C06583B004460D46AC
:105CB0009946B768904601A94846FFF7C5FFA8B1C5
:105CC0000198C01C002108E007EA000206EB8202EE
:105CD00058F82130D360401C491C4945F4D3009743
:105CE0004A46019B29462046FFF780FF96F81C0490
:105CF00018B100F029F80028FBD1BDE8F783002394
:105D00000022CEE780B5009201236A46FFF7C9FF63
:105D100001BD00B583B0009201936A46022306E0FC
:105D2000E0B5009201930323049A02926A46FFF7BA
:105D3000B8FF07BDDFF8300541680068814201D136
:105D400001207047002070472DE9F04F85B0FFF724
:105D5000F1FF002840F0B580DFF80C554FF4826069
:105D60002C180020A060BFF34F8F05F10409D9F86B
:105D700000A0D9F804B005E0C0F3891101EB905000
:105D8000401C824400F0E0F80C30006810F0030F73
:105D9000F2D0002700F0D8F80AF1010AC0684DF8E7
:105DA00027007F1C032FF5D300990FF27C1001F020
:105DB00003010229009948D18E0D3746502EA8BF05
:105DC000502666F39F5100F0B9F806F10C01FFF779
:105DD00061FA5FEA000837D0FFF7A4FA00F0B9F8DB
:105DE0000BEA0A000BF10101091A8A00B24205EB25
:105DF000800018D22AB905F10C01B346002500260F
:105E000004E000F10C0193460C35B61A5FFA8BFBE7
:105E10000C235A464046FFF7D8FA5DB10BF10C034C
:105E2000F2B2294603E00C23324600F10C01404651
:105E3000FFF7CBFAF81C0AEB900A2768A068002845
:105E400056D04046FFF77CFA65E001F003010129D6
:105E50002FD10099009AC1F383110629A8BF06210A
:105E600022F4707242EA811100F068F80099C1F3DF
:105E70008311C91C8900FFF70DFA5FEA00084AD0B8
:105E8000FFF750FA00F065F80C2600270098C0F3E1
:105E900083108742D1D200F057F800F10C0133464D
:105EA00004224046FFF791FA0AF1010A361D7F1CD1
:105EB000ECE7009800F00300032804BFA068002866
:105EC00029D100202DE0787A88B1019900F047F8B7
:105ED000397A806801EB4101C840049900F007005D
:105EE000884204D33A6812684146384690477F6832
:105EF000002FE8D14046FFF723FA00208DF80C0070
:105F000003A800F089FEA06808B9C9F800A09DF8B0
:105F10000C0000F09CFEFFF70DFF00F0010080F088
:105F20000100C3E00000000098B9002090B90020F3
:105F300098B90020A8B30020180000000091009933
:105F4000C1F3C201049170470BEA0A0005EB80001F
:105F5000704700230C2269464046FFF736BAC64810
:105F60000C22514308447047F8B504460D460026FC
:105F7000BD48D0F8101400E0496841B10A7AB24235
:105F8000FAD1761C0A2EF4DB4FF0FF3626E016F12C
:105F9000010F23D02672D0F8101421B9C0F8104494
:105FA0000020606004E049686160D0F8100444603B
:105FB00000270EE00023002239463046FFF7ACFDF3
:105FC0000246AA42207A88BF2A463946FFF783FD57
:105FD0007F1C00F024F9B7EBD00FEBD33046F2BDB5
:105FE00010B5A64804680121017306E00120607223
:105FF00020462168496888476468002CF6D110BDA6
:106000002DE9F04F04469948994985B0401AC008D7
:106010000490E068017A0391407A28B90FF2C02217
:1060200002212046FEF743FB0FF2E8230FF2C422C1
:1060300008212046FEF73BFB0FF2E4220821204610
:10604000FEF735FB0025DFF8388285A785A613E02B
:1060500001212846FFF71CFD0346CDF808B00821B2
:1060600058F82A000FF2E82201906D1C58F8290018
:1060700000902046FEF71BFB0498854216D2039839
:10608000012301222946FFF747FD8146039800239B
:1060900001222946FFF740FD0328B4BF82464FF096
:1060A000030A824534BFB346BB46D1E705B0BDE81D
:1060B000F08F70B5164604460D4600230022FFF708
:1060C0002BFDB04201D2002070BD32462946204649
:1060D000FFF701FD012070BD2DE9FE4F80460D4602
:1060E000D8F80C00007A01900027002D164600F029
:1060F0008D8030680FF2E0110722FFF7ACF900281D
:106100003BD1012D08D1404603B0BDE8F04F0FF25E
:1061100058220221FEF7CBBA022D08BF0127002426
:10612000DFF85C9159F8241070680A22FFF793F9A0
:1061300010B1641C052CF5D3052C03D173680FF244
:1061400040222BE0A146022400F069F8C008002F8D
:10615000009041D000240098844257D201985FFA01
:1061600089F22146FFF7A5FF28B900212046FFF755
:106170008FFC00F04DF8641CEDE730680FF2501111
:106180000822FFF768F930B9012D08BF01274FF049
:1061900000090124D8E733680FF20422404603B017
:1061A000BDE8F04F0221FEF782BA07D156F824303D
:1061B0000FF2282202214046FEF779FA01985FFA91
:1061C00089F23946FFF775FF28B900213846FFF7F5
:1061D0005FFC00F01DF8641CAC4217D256F8240096
:1061E000DDF800B002900027BA4601E00AF1010A8A
:1061F000DA45DAD200215046FFF74AFC0299202204
:10620000FFF729F90028F1D15746D7E7BDE8F78F06
:1062100003460FF2A41202214046FEF748BA134883
:106220001349401A704710B50C460021E1606160C7
:106230000FF2E011A1600121FFF72AFC206010BDE0
:106240000022CA604A6005280FF2C8128A603ABF6D
:106250000C4A52F82000002008607047000000003F
:10626000000000002A000000D8A000200C1203004B
:106270009411030094110300FC970020E8A400206F
:10628000B4960020C8960020C06800214172704773
:10629000C06801214172704700B5012983B004D064
:1062A000816891F83D11890706D503B05DF804EBCC
:1062B00000220021FEF7A5BA516801910FF23C11AE
:1062C0000091022113680FF22812FEF7F0F907BDC2
:1062D00064697361626C6500656E61626C65000083
:1062E0004C6F6773206172652068616C746564210E
:1062F0000D0A0000252D323473207C2063757272E4
:10630000656E74207C206275696C64696E200D0A6C
:10631000000000006D6F64756C655F6E616D6500F7
:106320002D2D2D2D2D2D2D2D2D2D2D2D2D2D2D2D9D
:106330002D2D2D2D2D2D2D2D2D2D2D2D2D2D2D2D8D
:106340002D2D2D2D2D2D2D2D2D2D0D0A0000000074
:10635000252D323473207C20252D3773207C202579
:106360007325730D0A000000426164207061726140
:106370006D6574657220636F756E742E0D0A000072
:10638000556E6B6E6F776E20736576657269747982
:10639000206C6576656C3A2025730D0A00000000BC
:1063A000556E6B6E6F776E206F7074696F6E3A20EA
:1063B00025730D0A000000004C6576656C20756E33
:1063C000617661696C61626C6520666F72206D6FC9
:1063D00064756C653A2025730D0A0000556E6B6E6E
:1063E0006F776E206D6F64756C653A25730D0A00CA
:1063F00025733A257325730D0A00000020756E6B16
:106400006E6F776E20706172616D657465723A208F
:1064100000000000010000002762020010B5826841
:10642000531C83600468A15441688B4203D3BDE8C8
:106430001040FEF76DBE10BD2DE9F84F814688462D
:1064400092461E4640464FF0010B03E0B0FBFAF0C7
:106450000BF1010B5045F9D2B3450B9D0A9C38BF97
:10646000B346E8070ED46CB1A80700D50EB12027BB
:1064700000E03027A34505D2394600F078F8641EC5
:10648000002CF7D1012702E0761E0AFB07F7022E47
:10649000FAD2B8FBF7F0504528BF0AFB07F7F8D24D
:1064A0000FF28C21B8FBF7F007FB1088095C00F0B5
:1064B0005EF8B7FBFAF7002FF2D1E80707D534B141
:1064C000A34504D200F052F8641E002CF8D1BDE8B8
:1064D000F18F2DE9FC4781460D46280092461F4664
:1064E00048BF40424FF0010803E090FBFAF008F18A
:1064F00001085045F9DAB8450A9E0B9C38BFB846EA
:1065000026B1002D01D4600700D5761EA00700D566
:106510004FB1E00707D436B1B04504D200F026F8F9
:10652000761E002EF8D1002D02D56D422D2102E0FD
:10653000600702D52B2100F01AF804F003000228AE
:1065400008BF002F08D13EB1B04505D2302100F080
:106550000EF8761E002EF7D1019400963B46524667
:1065600029464846FFF768FFBDE8F38720214846E3
:1065700054E72DE9F0430F0083B08046164600F043
:10658000C98017F8011B002900F0BC80252940F0C4
:10659000B380002002E040F001007F1C39782B29F5
:1065A00007D02D29F7D0302908BF40F00200F4D0E1
:1065B00002E040F00400F0E700240A2204E002FBBD
:1065C00004137F1CA3F130042A2907D131683160FC
:1065D0007F1C51F8043B31601C1904E03978A1F1AB
:1065E00030030A2BEBD3397800232E290BD17F1CE3
:1065F00004E002FB03117F1CA1F130033978A1F103
:1066000030050A2DF5D3397801E017F8011F6C2900
:1066100018BF6829F9D025296AD058291ED06329C6
:106620000CD0642918BF69290FD070294AD073296A
:106630001DD075290FD0782910D05BE0306830600C
:1066400050F8041B3060C9B252E000F065F84046D3
:10665000FFF73FFF4EE000F05FF845E03268326040
:1066600052F8041B32600190009410223CE0316823
:106670003160C00751F8045B31604FF0000909D464
:10668000ADB12846FEF728FD814610E000F04EF837
:1066900009F1010915F8011B0800F7D1A14529D21C
:1066A00000F043F8641EF9E700F03FF8641EA145CE
:1066B00001D2002CF8D115F8011B08001AD000F007
:1066C00035F8F8E730683060302150F8044B30601E
:1066D00000F02CF8782100F029F800200190082320
:1066E00008200090102221464046FFF7A5FE01E059
:1066F00000F01CF87F1C01E000F018F83878002842
:106700007FF43FAF98F80C0020B14046BDE8FE434F
:10671000FEF7FEBCBDE8F7833268326052F8041B16
:106720003260019000940A2270472021404675E6AD
:1067300030313233343536373839414243444546B7
:106740008068814201D2481C704700207047016870
:106750000A684968914201D3881A70478068401CD2
:10676000801A0818704710B501680C684968FFF76F
:10677000E7FFA04201D1012010BD002010BD2DE98E
:10678000F04182B0044600250E468DF8005000F01E
:1067900097F82046FFF7E7FF5FEA00081CBF207C60
:1067A00000283CD12068476800F085F82168B8F1DE
:1067B000000F486004D0096800F07EF82168086086
:1067C000E268012A06D0022A08D0042A0BD0082A3F
:1067D0000ED015E061683078C85517E061683088E0
:1067E00021F8170012E06168306841F827000DE0D9
:1067F0006268D6E9000102EBC702C2E9000105E0C8
:106800006068314602FB0700FEF7EAFD00F05BF826
:1068100021688A68824238BF02468A6000E0042507
:1068200000F053F82846BDE8F6812DE9F04182B02A
:10683000044600260D4690468DF8006000F040F8B2
:10684000204600F046F880BB20680768B8F1000FCA
:1068500004D1016800F030F821680860E268012A7C
:1068600006D0022A08D0042A0BD0082A0ED015E040
:106870006068C05D287019E0606830F817002880F3
:1068800014E0606850F8270028600FE0606800EBB3
:10689000C700D0E90001C5E9000107E0606802FB1C
:1068A00007012846FEF79CFD00E0052600F00DF8E4
:1068B0003046BDE8F6814168204641E78DF800701A
:1068C000684600F0A9B9204641E79DF8000000F0B5
:1068D000BEB9006801684068814201D1012070475B
:1068E00000207047006800218160704770B5044641
:1068F0000D46E07910BB207A6B4E50B1A179A0888B
:10690000FFF7D4F806EB800061A142692846FEF744
:106910000AFC22680FF29C112846FEF704FCA088AE
:106920000021FFF7B5F80346A07956F820200FF2B2
:1069300090112846BDE87040FEF7F5BB70BD38B534
:106940000C46C17953A541B9007A38B10FF25C12F7
:106950004FA12046FEF7E7FB00E01AB1294620468A
:10696000FEF7E1FB2046BDE83240FEF7D1BB000058
:106970002DE9F04385B081460C9D2E7B00202873C5
:106980000C469846174629464046FFF7AFFF062FAC
:1069900025D8DFE807F004090F1C1A18160049462D
:1069A0002846FEF7C0FB1AE0226849462846FEF753
:1069B000BAFB14E06368226849462846FEF7B3FB39
:1069C0000DE06069039020690290E06801904946FB
:1069D000A0680090636822682846FEF7A4FB0022A6
:1069E00029464046FFF7ABFF2E7305B0BDE8F083A4
:1069F0002DE9F84F0D46092D044691469A4644D29A
:106A00009AF80C800FF2C40B00208AF80C00514653
:106A10004846FFF76BFF00261FA7AE4205D2A25DD6
:106A200059465046FEF77FFB03E039465046FEF7D5
:106A30007AFB761C082EF0D318A15046FEF773FBA4
:106A40000026AE4213D2A75DA7F120005F2808D32D
:106A50003846FEF7DDFB20B93846FEF7E3FB00B908
:106A60002E273A460EA15046FEF75DFB03E00DA12E
:106A70005046FEF758FB761C082EE2D30122514601
:106A80004846FFF75CFF8AF80C80BDE8F18F0000F4
:106A9000257300000D0A0000202020007C0000006B
:106AA0002563000020000000DC9600201B5B306D99
:106AB000000000005B2530386C755D200000000090
:106AC0003C25733E2025733A2000000020253032FB
:106AD0007800000062F30F2262F31F4200B500BF8E
:106AE000130096469446103928BFA0E80C50FAD8F7
:106AF0005FEA417C28BF0CC048BF40F8042BC9079F
:106B000028BF20F8022B48BF00F8012B00BDFEE78C
:106B100010B50446DFF80C00C046C04650F824000B
:106B200010BD00007C970020A0F161011A2901D25C
:106B30000120704741381A288041C00F7047A0F1EA
:106B400021010F2921BFA0F13A010729A0F15B0122
:106B5000062904D37B3804288041C00F70470120E8
:106B60007047A0F10901052901D3202801D1012096
:106B700070470020704710B508B90E2010BD03689B
:106B8000416882681960521A03E019684C1C1C6045
:106B90000A7011464A1EC9B203680029F5D10020C7
:106BA000187110BD38B5044600258DF800506846B0
:106BB00000F032F82068626801688A420ED2491EED
:106BC00001600B78258AE2686B43D518A268511AD8
:106BD0000279CBB29A4238BF1A4602719DF8000082
:106BE00000F035F8284632BD38B5044600208DF84F
:106BF00000000D46684600F00FF8206801684A1C46
:106C00000260E068228A281AB0FBF2F008709DF852
:106C1000000000F01CF831BD30B5EFF3108172B602
:106C2000134A936873B90123124C93602568124B81
:106C30001D4015602360636853604FF0FF3262604F
:106C4000002200E00122027001B962B630BD08499D
:106C50008A6862B158B9EFF3108072B6074A0B68C0
:106C600013604B68536000228A6000B962B67047B7
:106C700030B9002080E100E0FC06FFBD00E100E04B
:106C800001B49DF80000012808D0022818BF03288D
:106C900007D0042808D0072803D008E00FF2180016
:106CA00007E00FF21C0004E00FF21C0001E00FF2FD
:106CB000200001B07047000031204D627073000069
:106CC00032204D6270730000436F64656400000001
:106CD000556E6B6E6F776E00F0B50C68002301E0A7
:106CE0006D1CEB188D88AB420AD2E6187778E55C0C
:106CF0008742F5D1B01C1060681E90800020F0BD66
:106D00000520F0BD7FB50D4600F1100102916A46E5
:106D1000C07BC008ADF80C0002A90920FFF7DCFF1A
:106D2000002458B92846FEF7D7F9BDF80420904250
:106D300004D10099284601F02FFBF8B16A4602A958
:106D40000820FFF7C9FFD0B92846FEF7C5F9BDF8FE
:106D50000460B04206D100990FF2B850324601F0FB
:106D60001BFB58B12846FEF7B7F9B04207D100998E
:106D70000FF2B050324601F00FFB00B9012420465B
:106D800004B070BD01464088DFF8842C14235843BA
:106D900010444FF44572104401F056BB38B50C4610
:106DA00040F677222188DFF86C0CDFF8645C9142B2
:106DB00004D04DF67A22914209D013E00121E97204
:106DC000416803290ED3A2880FF2280107E00121B0
:106DD00029734168032905D322790FF24C010088F9
:106DE00000F0CAF94FF44A7021462844BDE8344007
:106DF00001F097BD415454204D5455206578636887
:106E0000616E676520636F6D706C657465642E20BC
:106E10004D54552073657420746F20257520627958
:106E20007465732E0000000044617461206C656E0F
:106E3000677468207570646174656420746F2025C0
:106E4000752062797465732E000000001FB50FF283
:106E500030000FC86C4684E80F0000F041F804D3FE
:106E600000880FF22C0100F060FB002001F049FEC9
:106E70000121684673DF08B101F082FE1FBD0000EA
:106E8000000000000000000000002C0100000000D5
:106E90005374617274696E67206164766572746997
:106EA00073696E672E00000080B500F019F804D3F6
:106EB00000880FF21C0100F038FB002001F021FED9
:106EC0000FF270408ADF08B100F0B2BD01BD0000D2
:106ED0005374617274696E67207363616E2E000073
:106EE000DFF8300B41680329704738B50446DFF8F6
:106EF000245B207880B1022817D0042826D00628E9
:106F00002DD0072837D0092833D00B2818BF0D28DB
:106F100031D00F282AD031BD686803282FD32888A4
:106F20000FF25C0100F001FB31BD6868032826D335
:106F3000608801F0A9FE217A0091024628886388C2
:106F40000FF26801000400F0E4FA31BD0FF29C007A
:106F5000006800906946608802F019F831BD02F0BF
:106F6000C7FE0E2818BF082809D005E002F014F863
:106F700031BD206900E0A06808B101F001FE31BD1B
:106F8000436F6E6E656374656420746F206120705A
:106F9000726576696F75736C7920626F6E64656473
:106FA000206465766963652E00000000436F6E6E95
:106FB000656374696F6E20736563757265643A20EA
:106FC000726F6C653A2025642C20636F6E6E5F686B
:106FD000616E646C653A20307825782C2070726F71
:106FE0006365647572653A2025642E000000000018
:106FF00070B50446DFF8685C2288DFF8186AAA8357
:10700000E07AE8737068032804D330880FF2F00147
:1070100000F0B2F8E87B012805D1706803280BD393
:107020000FF2F00106E0022806D17068032803D3AE
:107030000FF2FC0100F078FAE87B022843D1A88B1C
:1070400010B1002001F09CFD208801461423584314
:1070500028444FF445730022184401F06CFA08B13B
:1070600001F08EFD8BDF74DF01F055FD20880146B5
:107070004FF4337250432844483003F0D5F808B138
:1070800001F07EFD7068032804D330880FF2B80148
:1070900000F04BFA01F015FE012803D1002001F0A9
:1070A00035FD10E07068032804D330880FF2B80172
:1070B00000F03BFA002001F024FD0FF278208ADF77
:1070C00008B101F05DFDE87B012805D12088291D6C
:1070D0008FDF08B101F054FD287A03280ED101F0AA
:1070E000F6FD01280AD07068032804D330880FF613
:1070F000504100F01AFABDE87040A7E670BD0000EC
:10710000436F6E6E2048616E646C653A203078255E
:1071100078000000436F6E6E656374656420617370
:107120002061207065726970686572616C2E000064
:10713000436F6E6E656374656420617320612063C4
:10714000656E7472616C2E00446973636F7665724C
:10715000696E6720474154542064617461626173B1
:10716000652E2E2E00000000526573756D6520732C
:1071700063616E2E00000000000440F00300FEF783
:10718000C1BD2DE9FE430446DFF888582088DFF8AA
:10719000D06A012800F08F8010284DD011284FD0E0
:1071A000122860D01D280ED01F2866D0212800F09C
:1071B000A980222800F083803B2878D0522870D004
:1071C000562874D0A4E00FF24C1800F0B7F80FF274
:1071D000541720B9394600F0B2F80028F2D000F078
:1071E000ADF8002868680FF6003903D003280BD3E8
:1071F000424602E0032807D33A462888000449465D
:1072000040F00300FEF77EFD0620B082F0820123ED
:1072100006F114020FF21C1104F108008CDF0028A3
:107220001CBF6968002973D0024628880FF6EC213C
:10723000000400F0D7FA6BE0201DFFF7D9FE67E0ED
:107240004FF6FF70B083707A50B16868022807D398
:1072500028880FF60431000440F00200FEF74FFDCD
:1072600001F059FC54E00120B073686803284FD343
:10727000638922890FF61C3140E001A804F108015E
:107280000822FEF7ADF8A08801A975DF08B101F06A
:1072900077FC686803283BD3638922890FF6203185
:1072A0002CE0A088002300220021A9DF2DE0B08B74
:1072B000132176DF29E0A088002166DF25E0207A0F
:1072C000232825D0012070730FF62C300068009021
:1072D000607A8DF80000A07A8DF8010068680328B4
:1072E00016D30098FFF7CCFC0346207A0FF60C313A
:1072F00000280CBF0FF624320FF62C32288800F03D
:107300000EF905E0A088311D8FDF08B101F038FCCF
:10731000BDE8F7834E6F726469635F52454C415913
:10732000000000004E6F726469635F534C41564524
:10733000000000000000A00050000000414604F1E1
:107340000800DFE4F3B581B0DFF8C846DFF8C056C7
:107350002DED028B82B09DF8140003282BD8DFE8B6
:1073600000F0022B3B4F6068032804D320880FF6FF
:10737000C42100F0DAF8012001F0C3FB0120A8725B
:10738000E87B012817D16888062812D0A882E882F5
:1073900005F11401A88B75DF00281CBF6168002966
:1073A00009D0024620880FF6A421000440F0010015
:1073B00094E00120A87399E06068032804D3208832
:1073C0000FF6B82100F0B1F802B00120BDEC028B3D
:1073D000BDE8FE4001F09ABB6068032808D320880E
:1073E0008A0A00040FF6AC2140F00300FEF78AFC85
:1073F00002B00220BDEC028BBDE8FE4001F094BB60
:1074000002F0EFFF022001F081FB032001F079FB85
:1074100002F0EBFF069E0746F00000EE907A00F0C7
:1074200069F880EE200AB0FBF7F1DFED380A4FF47F
:107430004A7080EE208A284401F0D3FA606803285D
:1074400004D320880FF65C2100F06FF860680328F1
:1074500004D320880FF6542100F067F860680328F1
:1074600008D34FF47A70B7FBF0F200FB1273208858
:1074700000F053F86068032826D3BDEEC80AB5EEC5
:10748000408AF8EEC00AF1EE10FACCBF78EE600A3E
:1074900070EEC80AB5EE408AF1EE10FA08D59FEDFD
:1074A000CD1AB4EE418AF1EE10FAA8BFCAA200DAF2
:1074B000CAA29FEDCB1A20880FF6302160EE810A18
:1074C00000F094F900F025F8606803280ED32088B6
:1074D0000FF634210004324640F0030002B0BDEC48
:1074E000028B03B0BDE8F040FEF70CBC02B0BDEC6F
:1074F000028BF7BD00EE100AF8EE600A9FED031A4A
:10750000B8EE400AC0EE810A7047000000007A44DD
:107510004A4640F00300FEF703BC0FF6B01100042A
:1075200040F00300FEF7F5BB3088000440F0030094
:10753000FEF7E5BB2DE9F8432DED048B0F4682B035
:1075400080463878DFF8C864DFF8C8540FF28C2919
:10755000A1A49FEDA38ADFED9F8A20B1022800F04D
:10756000CB803AD330E16868032804D328880FF62B
:10757000B811FFF7DAFF404601F05AF808B101F000
:10758000FFFA01F09EFB0128ECD100240FF6B8179A
:107590001420604330444FF44571084401F090F8E2
:1075A0005FEA00080AD0686828B1288800044246CB
:1075B000394600F017F9B8F1110FE9D0641CE7D093
:1075C00002F008FF012030746868032804D328887B
:1075D0000FF69C11FFF7A9FF8AE0706AB98840187E
:1075E000B0F5806F706211D9022001F09DFA706AC7
:1075F000A0F580607062B06A421CB26268680328BD
:1076000004D328880FF68011FFF7B6FDB06A800218
:10761000B0F5802FA6D3307C0028A3D002F0E1FE85
:10762000022001F073FA002070626868032805D315
:107630002888B26A0FF66411FFF79EFD02F0D5FEAE
:10764000B16A490300EE900A306200EE101AFFF7AB
:1076500053FF696880EE200ADFEDC30A032980EE3C
:10766000209A08D34FF47A71B0FBF1F201FB1203B8
:107670002888FFF752FF6868032820D3BDEEC90AA7
:10768000B5EE409AF8EEC00AF1EE10FACCBF79EEF2
:10769000600A70EEC90AB5EE409AF1EE10FA05D50F
:1076A000B4EE689AF1EE10FAA8BFA14628880FF64A
:1076B000241160EE880A00F099F8FFF729FF686846
:1076C000032804D328880FF63411FFF72EFF4FF458
:1076D0004570304400F0D5FF01001CBF68680028E9
:1076E00006D028880A4600040FF6501100F07AF8F8
:1076F0000020B062706267E06868032805D32888BC
:107700007A680FF66011FFF737FD7868D6ED080A42
:107710004003FFF7EFFE686880EE200ADFED920A73
:10772000032880EE200A25D3FDEEC00AB5EE400AFC
:10773000B8EEE01AF1EE10FACCBF30EE411A31EE9D
:10774000401AB5EE400AF1EE10FA05D5B4EE680A1B
:10775000F1EE10FAA8BFA14628880FF6281121EEF5
:10776000080ABDEEC00A00048DED000A10EE903A42
:10777000FFF7CEFE00207072B072F072307370733B
:10778000B0734FF6FF71788888421DD0686803286F
:1077900004D328880FF69421FFF7C7FE78881321B9
:1077A00076DF00281CBF696800290DD002B00246B0
:1077B000BDEC048B28880FF68821BDE8F84300044F
:1077C00040F00100FEF79EBA02B0BDEC048BBDE8AC
:1077D000F1830000FFFF7FBF2D00000000000000CC
:1077E0000000C84240F00100FEF78CBAFDEEE00A4E
:1077F0000004CDED000A10EE103A704738B50E289F
:10780000834C844D23D044D310280DD041D26868D6
:10781000032804D328880FF69001FFF786FE012085
:107820002072FFF713FB34E06868032804D328882C
:107830000FF69401FFF779FE6868032804D32888BF
:107840000FF24441FFF771FE0220207221E06868C8
:10785000032804D328880FF69401FFF766FE03205F
:107860002072002002F033FE98B9FFF71DFB686814
:10787000032804D328880FF24041FFF756FEFFF794
:10788000E5FA6868032804D328880FF24041FFF71F
:107890004CFE02F0F6FE00B11CE031BDDFF8C4136F
:1078A00002780A7042784A70704738B5DFF8B053F2
:1078B00004462C80214605F12C0002F071FF08B12E
:1078C00001F05EF9214605F12C0002F075FF00B1D0
:1078D00000E031BDBDE8324001F052B9DFF880135D
:1078E00048807047DFF878339871002814BFFB2276
:1078F0001B224FF6FF7103F12C0002F069BFF0B5B7
:10790000434D85B00446287A012808BF0FF60806C3
:1079100006D0287A02280CBF0FF604060FF60806D8
:107920000FF6140208212046FCF7C1FE6868FFF735
:10793000A7F9EB79AF7938A138A2002B14BF134611
:107940000B4607B1114604900393029133466888B1
:107950000FF60C0201900821288800902046FCF7C1
:10796000A6FE05B0F0BD000000007A4410B5FFF798
:10797000B7FA04D300880FF67001FFF7D6FDFEF7C3
:10798000E3F90028FBD1B64C207A01206073E07B3C
:10799000012805D0022808D0207A022809D104E065
:1079A000FFF754FA0220207110BDBDE81040FFF728
:1079B0007BBA10BD00B5AC4889B00068C0070BD5D4
:1079C000032000900123012200210FF65410FCF740
:1079D0000CFE08B101F0D4F80FF69C1101A891EC4F
:1079E000080B80EC080B0620019001230820029070
:1079F000012200208DF8180001A9032000900FF645
:107A00000410FCF7F2FD08B101F0BAF809B000BDAE
:107A1000F0920020749800206F6666006F6E000080
:107A200080B50FF6E000FCF7F5FD00B100E001BD08
:107A3000BDE8024001F0A4B870B592B08B48FDF7E4
:107A4000C8FF08B101F09CF8FFF7B4FF01F082F81D
:107A500003F0A8FA08B101F093F802F0A3FC804CFF
:107A60004FF4537040F266620321204402F0C6FDD9
:107A700008B101F085F803F0DEFB08B101F080F8F1
:107A80000020029002A9012003F06FFC08B101F070
:107A900077F802A803F00EFD08B101F071F811208B
:107AA0008DF8080008220FF2646102A87CDF08B19B
:107AB00001F066F804F114007ADF08B101F060F813
:107AC0006B4904F12C0002F057FE08B101F058F8A0
:107AD00001F016FA08B101F053F805216846FDF7E8
:107AE00057FB31208DF8000007208DF80100102091
:107AF0008DF802009DF8030040F003008DF80300AC
:107B00009DF8040040F003008DF80400684601F081
:107B100035FA08B101F034F8564801F01DFA08B101
:107B200001F02EF803A80FF614013C22FDF768FCC3
:107B3000002103A804F0A2F808B101F021F84FF4E5
:107B40004A7025184C49284600F083FE4B4802F045
:107B50001EFB08B101F014F84FF445704849204469
:107B600000F0BEFC08B101F00BF82088FFF79DFE85
:107B7000A079FFF7B7FE0021CDE900110220E179DD
:107B80008DF80010694667DF08B100F0F9FF201D8D
:107B9000FFF784FEFFF744FF02F063FD08B100F039
:107BA000EFFF384E7068032804D330880FF2B861B5
:107BB000FFF7BBFC7068032804D330880FF2C8615C
:107BC000FFF7B3FC7068032804D330880FF2DC6140
:107BD000FFF7ABFC7068032816D330880FF2F06112
:107BE000FFF7A3FC10E0207A032806D17068032871
:107BF00003D30FF22061FFF797FC284600F08DFEBB
:107C0000FEF7A2F800B93EDF0FF2F860FCF723FDA3
:107C1000207AA07B00281CBFA07A0028F0D0E07A50
:107C200000281FBF207B0028607B0028E8D0607AF6
:107C30000028E5D17068032804D330880FF2B461BE
:107C4000FFF773FC0120607202F0C4FB207A012868
:107C5000C9D170680328D0D30FF2A051CBE7000040
:107C6000F0920020F4920020F0ED00E0A9B00200B4
:107C70009D6D0200EB6E020045730200856D0200EF
:107C8000357502007498002054797065202772754C
:107C90006E27207768656E20796F75206172652088
:107CA000726561647920746F2072756E20746865E6
:107CB00020746573742E00002052656C6179207306
:107CC00063616E2073746172742E00002052656CC3
:107CD0006179206164766572746973696E67207377
:107CE000746172742E000000446576696365202219
:107CF00025732220666F756E642C2073656E64692F
:107D00006E67206120636F6E6E656374696F6E20AD
:107D1000726571756573742E0000000073645F6294
:107D20006C655F6761705F636F6E6E656374282951
:107D3000206661696C65643A20307825782E0000F1
:107D400052656C6179207374696C6C20616476652E
:107D50007274697365732E004741502064697363C0
:107D60006F6E6E656374696F6E206576656E7420E4
:107D70007265636569766564207768696C652074EF
:107D8000657374207761732072756E6E696E672EED
:107D900000000000436F6E6E656374696F6E20694A
:107DA0006E74657276616C20757064617465643A96
:107DB00020307825782C20307825782E000000009F
:107DC000436F6E6E656374696F6E20696E74657261
:107DD00076616C2075706461746564202875706FBD
:107DE0006E2072657175657374293A203078257834
:107DF0002C20307825782E000000000050485920B3
:107E00007570646174652025732E20504859207365
:107E1000657420746F2025732E0000006163636514
:107E2000707465640000000072656A65637465645F
:107E3000000000004E6F74696669636174696F6E5B
:107E40007320656E61626C65642E000073645F620E
:107E50006C655F6761705F636F6E6E5F70617261AA
:107E60006D5F7570646174652829206661696C6551
:107E7000643A20307825782E000000004E6F746937
:107E80006669636174696F6E732064697361626CA3
:107E900065642E0053656E74202575204B427974FD
:107EA00065730000446F6E652E0000003D3D3D3D52
:107EB0003D3D3D3D3D3D3D3D3D3D3D3D3D3D3D3DF2
:107EC0003D3D3D3D3D3D3D3D3D00000054696D65FE
:107ED0003A2025752E252E3275207365636F6E64EA
:107EE0007320656C61707365642E00005468726F56
:107EF0007567687075743A20257325642E253032B5
:107F000064204B6270732E0053656E7420257520BB
:107F10006279746573206F662041545420706179D2
:107F20006C6F61642E000000414D542073657276C1
:107F300069636520646973636F7665726564206147
:107F40007420706565722E006E72665F626C655F8C
:107F5000616D74635F7263625F777269746528290B
:107F6000206661696C65643A20307825782E0000BF
:107F70004D617374657220636F756E7465722073E2
:107F800074617274212121005265636569766564AC
:107F9000202575206B627974657300005472616EE0
:107FA0007366657220636F6D706C6574652C2072EA
:107FB00065636569766564202575206B62797465F3
:107FC00073206F6620415454207061796C6F616436
:107FD0002E000000436F6C6C6563746F72205468F0
:107FE000726F7567687075743A20257325642E2545
:107FF000303264204B6270732E0000003D3D3D3DE9
:108000003D3D3D3D3D3D3D3D3D3D3D3D3D3D3D3DA0
:108010003D3D3D3D3D3D3D3D3D3D3D3D3D3D3D3D90
:108020003D3D3D3D3D3D3D3D3D3D3D3D3D3D3D3D80
:108030003D3D3D3D3D3D3D3D3D3D00006E72665F39
:10804000626C655F616D74635F7263625F726561CC
:10805000642829206661696C65643A203078257847
:108060002E000000536C61766553656E64696E671F
:1080700020446174613A202575204B6279746573E0
:108080000000000053656E64696E67205468726F6B
:108090007567687075743A257325642E25303264CF
:1080A000204B6270732E00005468697320626F6108
:1080B00072642077696C6C20616374206173206145
:1080C00020736C6176652E005468697320626F615D
:1080D00072642077696C6C20616374206173206125
:1080E000206D61737465722E00000000546869731E
:1080F00020626F6172642077696C6C206163742008
:10810000617320612072656C61792E004E6F72641C
:1081100069635F4300000000736C617665000000D6
:108120006D617374657200006E6F742073656C65A9
:1081300063746564000000003D3D3D3D2043757261
:1081400072656E74207465737420636F6E66696700
:1081500075726174696F6E203D3D3D3D0D0A0000F2
:10816000426F61726420726F6C653A090925730D64
:108170000A415454204D54552073697A653A0909CF
:1081800025640D0A436F6E6E656374696F6E2069B6
:108190006E74657276616C3A09256420756E697437
:1081A000730D0A44617461206C656E6774682065A4
:1081B00078743A0925730D0A436F6E6E65637469AE
:1081C0006F6E206C656E677468206578743A092557
:1081D000730D0A5072656665727265642050485965
:1081E0003A090925730D0A00507265706172696E53
:1081F000672074686520746573742E00536C617613
:108200006520636F756E746572207374617274217A
:108210000000000052656C617920636F756E7465B3
:1082200072207374617274210000000044697363EA
:108230006F6E6E656374696E672E2E2E00000000EF
:1082400073645F626C655F6761705F646973636FBD
:108250006E6E6563742829206661696C65643A20D6
:1082600030782530782E0000415454204D5455204C
:108270006D6561737572656D656E7420737461727E
:108280007465642E0000000050726573732062757F
:1082900074746F6E2032206F6E2074686520726572
:1082A0006C617920626F6172642E00005072657398
:1082B0007320627574746F6E2033206F6E20746843
:1082C0006520736C61766520626F6172642E0000B8
:1082D000507265737320627574746F6E2034206FF2
:1082E0006E20746865206D617374657220626F61C1
:1082F00072642E00546573742073746172746564C3
:108300000000000070100300A410030080AD0020E6
:108310006C96002054960020E01003000D00000031
:1083200070100300C0100300C0AE00209C96002017
:1083300084960020081103000A00000002000006D5
:10834000000000000000000000000000000000002D
:10835000000000000000000000000000000000001D
:10836000000000000000000000000000000000000D
:108370000000000000000000FFFFFFFFFFFFFFFF05
:10838000FFFFFFFFFFFFFFFF0000000000000000F5
:108390000000D601070100000300002013F0030FC6
:1083A00009D0521E22BF13F8010B11F801CBB0EB1C
:1083B0000C00F3D07047121F22BF53F8040B51F882
:1083C00004CB6045F7D0121D0AD200BA9CFA8CFC8F
:1083D000B0EB0C0038BF6FF0000088BF0120704781
:1083E000521E22BF13F8010B11F801CBB0EB0C00A9
:1083F000F6D0521C08BF10467047FEE7017842785D
:1084000041EA02218278C07841EA024141EA0060F3
:108410007047BF4B58681968884214D01422BD4970
:1084200050430844817821B98188008800229ADF6E
:1084300003E000F1080100889CDF20B95868401C67
:1084400000F00700586070477FB5044608780028A0
:1084500002BF888841F22352904202BF8879227B72
:1084600090423CD14888ADF80200002009E041F27A
:108470002556B24201BF227B9342EA8AADF808201A
:10848000401C0A7A904212D2122242438D1841F2C5
:108490002456EA892B7CB242E9D1227B9342EFD168
:1084A0002A8BADF80420EA8AADF80620E8E7208898
:1084B0004FF6FF7188420AD06088002804BFA08868
:1084C000002804D1A01C01A90622FCF789FF002086
:1084D0008DF8000020616946A268204690477FBD64
:1084E00070B5040086B00D4601D0280001D10E20E1
:1084F0001FE00FF278200FC801AE86E80F0004F1EC
:108500000C0101A862DFA0B9207B8DF802000021D8
:1085100041F22350ADF80000A560002020614FF625
:10852000FF7020806180A1802080E180684601F09A
:108530003CFE06B070BD80B508B90E2002BD0180BA
:1085400022B11146801C0622FCF74AFF002002BD22
:10855000F0B504460D0018BF002C85B066D0208809
:10856000112822D036282DD0392802BFA08829888A
:10857000814202BF6189AA88914251D12969E28969
:1085800089182961ADF8020001218DF80010E089F9
:10859000ADF8040004F11000FFF730FF02905E49CF
:1085A00028690390607D087036E02888A188884299
:1085B00036D14FF6FF70288000206880A880E880C0
:1085C00028612DE0A0882988814202BF6189EA885C
:1085D000914225D1514FADF80200022178688DF803
:1085E00000100328E67C04D338880FF2401100F015
:1085F00097F87868032808D338880FF258110004D8
:10860000324640F00300FDF77DFB0020E07404F1EA
:108610001000FFF7F3FE01906946AA6828469047CC
:108620002888A188884208BFFFF7F3FE05B0F0BD97
:1086300038B508B90E2032BD01884FF6FF7291425D
:1086400001D1082032BD324B324A1C6814256543E3
:10865000641C04F007041C602A4440885081118087
:108660000220D081101D1061002090810120107225
:1086700010710020507101209070FFF7CAFE002099
:1086800032BD10B508B90E2010BD01884FF6FF723B
:10869000914201D1082010BD1D491E4B0A681424C7
:1086A00054432344C4889C8000881880002098701C
:1086B000501C00F007000860FFF7ABFE002010BD63
:1086C00030B5040085B008BF0E201FD020884FF6BB
:1086D000FF71884208BF082018D01048416803295C
:1086E00004D300880FF2940100F01AF800200FF272
:1086F000C8018DF8030001A82CC92CC0E088ADF892
:108700000600CDF80CD001A920889CDF05B030BD53
:1087100060B90020D8B50020BAB90020FC9700202D
:10872000000440F00300FDF7EABA00002D2D2D2DC6
:108730002D2D2D2D2D2D2D2D2D2D2D2D2D2D2D2D69
:108740002D2D2D2D2D2D2D2D2D2D2D2D2D2D2D2D59
:108750002D2D00005468697320697320626F617267
:1087600064204E6F2E25752000000000BB4AFF4F8D
:10877000AD03415DA96C9D6CDDDA830457726974A9
:10878000696E672052434220636861726163746559
:1087900072697374696320746F2074656C6C2073E4
:1087A000657276657220636F756E7465722073747E
:1087B000617274212E00000002010000000004001C
:1087C000000000000870020A4A70020C000EC87017
:1087D0008A70042070471CB50C460188102906D009
:1087E000112906D0502908D057291CD013BD8088E4
:1087F00001E04FF6FF70208013BDC18822899142AD
:1088000004BF018A022923D1123003F06EFA401E00
:108810008041C00F8DF80000DDE90001626902B0FF
:10882000BDE810401047814B5968032908D382796D
:1088300018880FF2FC11000440F00300FDF762FA03
:10884000207E28B1002020762046BDE8164071E049
:1088500013BD70B504460D460FF210200FC896B038
:1088600012AE86E80F00A11C12A862DF08B100F06A
:1088700087F9A0788DF8020001AA41F22350ADF8E3
:10888000000069460120A0DF08B100F079F920213D
:108890000AA8FCF77DFC41F22450ADF82800221D07
:1088A000A0788DF82A000AA9F720ADF82C009DF8D1
:1088B000350040F010008DF8350001208DF83B00A8
:1088C0008DF83400BDF8040003F02BFA08B100F075
:1088D00057F9202102A8FCF75BFC41F22550ADF8C6
:1088E000080004F10C02A0788DF80A0002A9042007
:1088F000ADF80C009DF8150040F002008DF8150051
:1089000001208DF81900BDF8040003F00AFA08B13F
:1089100000F036F9656116B070BD0021C1610162D9
:1089200008E00A8840F677239A4202D18988C91E56
:1089300041837047F0B50446C7B0608BADF80000C6
:10894000206AB0F5802F0CD3029003208DF804002C
:10895000DDE9010162699047002020762062E06134
:108960003DE00FF26010314E0FC803AD85E80F00F7
:10897000A0880FF20815ADF80C00CDF814D007A8A8
:108980000690206A07A9FFF71DFF208803A9A6DF2C
:108990000746132F02D10120207620E0002F1CBFB4
:1089A0007068002807D0308800043A46294640F015
:1089B0000100FDF7A7F9206ABDF80010E269401830
:1089C000810A8A42206208D0E161029002218DF87A
:1089D0000410DDE9010162699047002FD1D047B052
:1089E000F0BD10B5044684B0084601A90022C1E9D3
:1089F00000226946FFF7E6FEADF80400CDF808D086
:108A000003208DF8030001AAA1892088A4DF0200B9
:108A10001EBF06484168002907D000880FF27C017C
:108A2000000440F00100FDF76DF91FBD089800201B
:108A30006E756D626572206F66207061636B657420
:108A400073207472616E736D697474656420696EED
:108A5000206F6E6520636F6E6E656374696F6E2044
:108A60006576656E743A202564000000BB4AFF4FAE
:108A7000AD03415DA96C9D6CDDDA830473645F62B4
:108A80006C655F67617474735F6876782829206607
:108A900061696C65643A20307825780073645F62A0
:108AA0006C655F67617474735F76616C75655F7325
:108AB00065742829206661696C65643A20307825E0
:108AC000780000000000010000000000000000002D
:108AD0000000000041EA420141EA8302009942EAB3
